:0400000080312628FD
:10000800803120007F08F3002100131E12282000F1
:10001800131E122881315121803122282100911E7E
:100028001C282000911E1C288131CF2180312228D4
:100038008B190B1C222882312C220B1073082000EC
:10004800FF000900803128287030840021308500A5
:100058008030FE000030FF00823120228031F6011E
:10006800F701F801F90120308400003085001430D0
:10007800FE000030FF008231202220008031442819
:100088008231382280318B170B1722000C160E1084
:100098008E100E11E8302000C1000330C200420863
:1000A800803AC00080304002031D5C286430410261
:1000B800031C86280A302000B4000030B50042082E
:1000C800B7004108B6008031B420803120003508DF
:1000D800BD003408BC004208BF004108BE008131A1
:1000E80006218031F6302000C107FF30C23D4208AA
:1000F800803AC00080304002031D842864304102E9
:1001080003185E2864302000C3000030C40044088F
:10011800803AC00083304002031D9428E93043022E
:1001280003184E280A302000B4000030B5004408F7
:10013800B7004308B6008031B4208031200035086C
:10014800BD003408BC004408BF004308BE0081312C
:10015800062180310A302000C3070030C43D8B28B7
:100168002000B901B51FBF28B409B509B40A03199D
:10017800B50AB901B90AB71FCA28B609B709B60A34
:100188000319B70A0130F4007408B906BA01BB01B3
:10019800340835040319F928B801B80AB51BDE2854
:1001A8000130B435B50D890BD5280130F400740839
:1001B800B807D2280130BA35BB0D890BDF283508BE
:1001C8003702031DE92834083602031CF0283408D6
:1001D800B6023508B73B3A140130B536B40C890B72
:1001E800F1280130B802031DDE2839080319012956
:1001F800BA09BB09BA0A0319BB0A3B08B5003A0891
:10020800B40008002000A801A80AA901AA013D0815
:10021800F5003C08F4008231012281312000A80158
:10022800A80AA901A90AAA013D08F5003C08F4009A
:100238008231012281312000A801A80AA901A90A56
:10024800AA01AA0A3F08F5003E08F40082310122FB
:1002580081312000A801A80AA901A90AAA013D081C
:10026800F5003C08F4008231012281312000A80108
:10027800A80AA901AA013D08F5003C08F40082314A
:10028800012281312000A801A901AA013F08F50037
:100298003E08F400823101220800200013121030B9
:1002A80022008C0620002803031D5C2922000E145E
:1002B80020002903031D622922008E1420002A032E
:1002C800031D682922000E1520002B03031D6E292B
:1002D80022008E1520002C03031D742922000E16FF
:1002E80020002D03031D7A2922008E1620002E03DC
:1002F800031D802922000E1720002F03031D8629C5
:1003080022008E170000000022000E108E100E1121
:100318008E110E128E120E138E13080022008C01FD
:10032800273021008C00043023008C000330240087
:100338008C0022008D01F03021008D0023008D01FA
:10034800F03024008D0022008E0121008E01230050
:100358008E0124008E012100951327001214921497
:100368008B1500308B1B0130F4008B1355303C008B
:100378008F00AA308F000F102408E0390538A40038
:1003880055308F00AA308F000F14741CCD298B179D
:1003980008008B130800F20123009D1CD5291D12AB
:1003A8001D161D1DDF291908F0007008F200F7015D
:1003B800F70A1D11F82977080319E429F601F7014E
:1003C8001908F0007008F2007608703EF000F1019C
:1003D8002130F13D700886007108870019088100F6
:1003E8000130F0007008F607803076020318F60135
:1003F8000130F0007008F80708002000B601B701C6
:100408007508803AB4003708803A3402031D0E2A72
:1004180036087402031C080005302000B500AB3014
:10042800B400B40B152AB50B152A00320130200090
:10043800B6070030B73D042A64008001013101305D
:10044800FE020030FF3B7F087E0403190034212A96
:1004580027001218131C322A13100800921C0800D7
:10046800931C08009310080082314922823181319F
:1004780092218231823141220800833022009C007F
:10048800200013122100131608007A302100990069
:060498009A019801080022
:020000040001F9
:04000E00C4EFFFFF3D
:00000001FF
